{
  "contractName": "Adoption",
  "abi": [
    {
      "constant": true,
      "inputs": [],
      "name": "contractOwnerAddress",
      "outputs": [
        {
          "name": "",
          "type": "address"
        }
      ],
      "payable": false,
      "stateMutability": "view",
      "type": "function"
    },
    {
      "anonymous": false,
      "inputs": [
        {
          "indexed": true,
          "name": "petId",
          "type": "uint256"
        },
        {
          "indexed": false,
          "name": "name",
          "type": "bytes32"
        }
      ],
      "name": "NameAssigned",
      "type": "event"
    },
    {
      "anonymous": false,
      "inputs": [
        {
          "indexed": true,
          "name": "petId",
          "type": "uint256"
        },
        {
          "indexed": true,
          "name": "adopter",
          "type": "address"
        }
      ],
      "name": "Adopted",
      "type": "event"
    },
    {
      "constant": false,
      "inputs": [
        {
          "name": "petId",
          "type": "uint256"
        },
        {
          "name": "to",
          "type": "address"
        }
      ],
      "name": "transfer",
      "outputs": [],
      "payable": false,
      "stateMutability": "nonpayable",
      "type": "function"
    },
    {
      "constant": false,
      "inputs": [
        {
          "name": "petId",
          "type": "uint256"
        }
      ],
      "name": "createAdoptee",
      "outputs": [],
      "payable": false,
      "stateMutability": "nonpayable",
      "type": "function"
    },
    {
      "constant": true,
      "inputs": [
        {
          "name": "petId",
          "type": "uint256"
        }
      ],
      "name": "adopterOf",
      "outputs": [
        {
          "name": "adopter",
          "type": "address"
        }
      ],
      "payable": false,
      "stateMutability": "view",
      "type": "function"
    },
    {
      "constant": false,
      "inputs": [
        {
          "name": "petId",
          "type": "uint256"
        }
      ],
      "name": "adopt",
      "outputs": [],
      "payable": false,
      "stateMutability": "nonpayable",
      "type": "function"
    },
    {
      "constant": true,
      "inputs": [
        {
          "name": "petId",
          "type": "uint256"
        }
      ],
      "name": "isAdopted",
      "outputs": [
        {
          "name": "adopted",
          "type": "bool"
        }
      ],
      "payable": false,
      "stateMutability": "view",
      "type": "function"
    },
    {
      "constant": false,
      "inputs": [
        {
          "name": "petId",
          "type": "uint256"
        },
        {
          "name": "name",
          "type": "bytes32"
        }
      ],
      "name": "assignName",
      "outputs": [],
      "payable": false,
      "stateMutability": "nonpayable",
      "type": "function"
    }
  ],
  "bytecode": "0x608060405260018054600160a060020a03191633600160a060020a031617905534801561002b57600080fd5b506105198061003b6000396000f3006080604052600436106100825763ffffffff7c01000000000000000000000000000000000000000000000000000000006000350416630de09c3e81146100875780637541475f146100bb5780637c39eaa3146100e75780638588b2c5146101015780638647f56b14610119578063b7760c8f14610134578063cb44c5f314610158575b600080fd5b34801561009357600080fd5b5061009f60043561016d565b60408051600160a060020a039092168252519081900360200190f35b3480156100c757600080fd5b506100d36004356101b0565b604080519115158252519081900360200190f35b3480156100f357600080fd5b506100ff6004356101f5565b005b34801561010d57600080fd5b506100ff600435610293565b34801561012557600080fd5b506100ff600435602435610368565b34801561014057600080fd5b506100ff600435600160a060020a0360243516610417565b34801561016457600080fd5b5061009f6104c7565b600081815260208190526040812054829060a060020a900460ff16151561019357600080fd5b5050600090815260208190526040902054600160a060020a031690565b600081815260208190526040812054829060a060020a900460ff1615156101d657600080fd5b5050600090815260208190526040902054600160a060020a0316151590565b6101fd6104d6565b60015433600160a060020a0390811691161461021857600080fd5b506040805180820182526000808252600160208084019182529482529381905291909120905181549251151560a060020a0274ff000000000000000000000000000000000000000019600160a060020a039290921673ffffffffffffffffffffffffffffffffffffffff199094169390931716919091179055565b600081815260208190526040902054819060a060020a900460ff1615156102b957600080fd5b600081815260208190526040902054600160a060020a0316156102db57600080fd5b600082815260208190526040902054829060a060020a900460ff16151561030157600080fd5b600083815260208190526040808220805473ffffffffffffffffffffffffffffffffffffffff191633600160a060020a03169081179091559051909185917f01c07ea0ae04d5e8aae2bb4f2d6bf449288c76006383b9ffaed4d85ca8d9a9519190a3505050565b600082815260208190526040902054829060a060020a900460ff16151561038e57600080fd5b60008181526020819052604090205433600160a060020a039081169116146103b557600080fd5b600083815260208190526040902054839060a060020a900460ff1615156103db57600080fd5b60408051848152905185917f81c1028a0bee463ceacb9e56ba0383394952457da330ba49947c730dd72255b5919081900360200190a250505050565b600082815260208190526040902054829060a060020a900460ff16151561043d57600080fd5b60008181526020819052604090205433600160a060020a0390811691161461046457600080fd5b600083815260208190526040902054839060a060020a900460ff16151561048a57600080fd5b5050600091825260208290526040909120805473ffffffffffffffffffffffffffffffffffffffff1916600160a060020a03909216919091179055565b600154600160a060020a031681565b6040805180820190915260008082526020820152905600a165627a7a72305820c01d094b867f14abd40a492fde17db76de765a75625461523d760e9199c2e8b60029",
  "source": "pragma solidity 0.4.23;\n\ncontract Adoption {\n    event NameAssigned(uint256 indexed petId, bytes32 name);\n    event Adopted(uint256 indexed petId, address indexed adopter);\n\n    struct Pet {\n        address adopter;\n        bool exists;\n    }\n\n    mapping (uint256 => Pet) private pets;\n\n    address public contractOwnerAddress = msg.sender;\n\n    modifier messageSenderIsContractOwner() {\n        require(msg.sender == contractOwnerAddress);\n        _;\n    }\n\n    modifier messageSenderIsAdopter(uint256 petId) {\n        require(pets[petId].exists);\n        require(pets[petId].adopter == msg.sender);\n        _;\n    }\n\n    modifier petExists(uint256 petId) {\n        require(pets[petId].exists);\n        _;\n    }\n\n    modifier petDoesNotExist(uint256 petId) {\n        require(!(pets[petId].exists));\n        _;\n    }\n\n    modifier petIsNotAdopted(uint256 petId) {\n        require(pets[petId].exists);\n        require(pets[petId].adopter == address(0));\n        _;\n    }\n\n    modifier addressIsAdopter(address claimant, uint256 petId) {\n        require(pets[petId].exists);\n        require(pets[petId].adopter == claimant);\n        _;\n    }\n\n    function transfer(uint256 petId, address to) public messageSenderIsAdopter(petId) petExists(petId) {\n        pets[petId].adopter = to;\n    }\n\n    function createAdoptee(uint256 petId) public messageSenderIsContractOwner {\n        Pet memory pet = Pet({\n            adopter: address(0),\n            exists: true\n            });\n        pets[petId] = pet;\n    }\n\n    function adopterOf(uint256 petId) public view petExists(petId) returns (address adopter) {\n        adopter = pets[petId].adopter;\n    }\n\n    function adopt(uint256 petId) public petIsNotAdopted(petId) petExists(petId) {\n        pets[petId].adopter = msg.sender;\n        emit Adopted(petId, msg.sender);\n    }\n\n    function isAdopted(uint256 petId) public view petExists(petId) returns (bool adopted) {\n        adopted = pets[petId].adopter != address(0);\n    }\n\n    function assignName(uint256 petId, bytes32 name) external messageSenderIsAdopter(petId) petExists(petId) {\n        emit NameAssigned(petId, name);\n    }\n}\n",
  "sourcePath": "/app/sol/contracts/Adoption.sol",
  "compiler": {
    "name": "solc",
    "version": "0.4.23+commit.124ca40d.Emscripten.clang"
  },
  "schemaVersion": "2.0.0",
  "updatedAt": "2019-03-23T20:08:47.942Z"
}